:1000000016EF00F0EA6A060EE96EEF500EE00F0EF2
:10001000016E006A002EFED7012EFBD78F0E006EF8
:10002000002EFED70000EF2EF2D71200F86AD09E05
:10003000046AC150C00B0F09C16E070EB46E956AF9
:10004000836A0F0E936E030E836E020E056EFA0E18
:10005000066ED8DF052EFBD7816A8150F00F32E2A1
:10006000100F73EF00F03F0E046E2CD0060E046EDE
:1000700029D05B0E046E26D04F0E046E23D0660E80
:10008000046E20D06D0E046E1DD07D0E046E1AD04D
:10009000070E046E17D07F0E046E14D0670E046E28
:1000A00011D0770E046E0ED07C0E046E0BD0390E7C
:1000B000046E08D05E0E046E05D0790E046E02D078
:1000C000710E046E050E836E640E066E9BDF936ADE
:1000D00004C081FF040E056EFA0E066E93DF052E36
:1000E000FBD7AFD70300E824F76AF736010FF66EA7
:1000F000010EF7220A00F550FA6E0800F550F96E6D
:1001000066006C00720078007E0084008A00900017
:1001100096009C00A200A800AE00B400BA00C00087
:020000040030CA
:0E0000002CCE3E1E0087A1000FC00FE00F4067
:00000001FF
;PIC18F4550
;CRC=1D1B  CREATED="30-may.-23 22:39"
